{
  "contractName": "UserRegistration",
  "abi": [
    {
      "inputs": [],
      "stateMutability": "nonpayable",
      "type": "constructor"
    },
    {
      "anonymous": false,
      "inputs": [
        {
          "indexed": true,
          "internalType": "string",
          "name": "userDID",
          "type": "string"
        },
        {
          "indexed": false,
          "internalType": "uint256",
          "name": "amount",
          "type": "uint256"
        }
      ],
      "name": "Deposit",
      "type": "event"
    },
    {
      "anonymous": false,
      "inputs": [
        {
          "indexed": true,
          "internalType": "string",
          "name": "userDID",
          "type": "string"
        },
        {
          "indexed": false,
          "internalType": "string",
          "name": "ipfsUserInfoHash",
          "type": "string"
        },
        {
          "indexed": false,
          "internalType": "string",
          "name": "docFileIPFSHash",
          "type": "string"
        }
      ],
      "name": "UserRegistered",
      "type": "event"
    },
    {
      "anonymous": false,
      "inputs": [
        {
          "indexed": true,
          "internalType": "address",
          "name": "withdrawer",
          "type": "address"
        },
        {
          "indexed": false,
          "internalType": "uint256",
          "name": "amount",
          "type": "uint256"
        }
      ],
      "name": "Withdrawal",
      "type": "event"
    },
    {
      "inputs": [],
      "name": "lastFinalizedBlock",
      "outputs": [
        {
          "internalType": "uint256",
          "name": "",
          "type": "uint256"
        }
      ],
      "stateMutability": "view",
      "type": "function",
      "constant": true
    },
    {
      "inputs": [],
      "name": "minimumRegistrationFee",
      "outputs": [
        {
          "internalType": "uint256",
          "name": "",
          "type": "uint256"
        }
      ],
      "stateMutability": "view",
      "type": "function",
      "constant": true
    },
    {
      "inputs": [
        {
          "internalType": "uint256",
          "name": "",
          "type": "uint256"
        }
      ],
      "name": "registeredUsersDIDs",
      "outputs": [
        {
          "internalType": "string",
          "name": "",
          "type": "string"
        }
      ],
      "stateMutability": "view",
      "type": "function",
      "constant": true
    },
    {
      "inputs": [
        {
          "internalType": "string",
          "name": "",
          "type": "string"
        }
      ],
      "name": "users",
      "outputs": [
        {
          "internalType": "string",
          "name": "ipfsUserInfoHash",
          "type": "string"
        },
        {
          "internalType": "string",
          "name": "docFileIPFSHash",
          "type": "string"
        },
        {
          "internalType": "uint256",
          "name": "depositAmount",
          "type": "uint256"
        }
      ],
      "stateMutability": "view",
      "type": "function",
      "constant": true
    },
    {
      "inputs": [
        {
          "internalType": "string",
          "name": "_did",
          "type": "string"
        },
        {
          "internalType": "string",
          "name": "_ipfsUserInfoHash",
          "type": "string"
        },
        {
          "internalType": "string",
          "name": "_docFileIPFSHash",
          "type": "string"
        }
      ],
      "name": "registerUser",
      "outputs": [],
      "stateMutability": "payable",
      "type": "function",
      "payable": true
    },
    {
      "inputs": [
        {
          "internalType": "string",
          "name": "_did",
          "type": "string"
        }
      ],
      "name": "getUserInfo",
      "outputs": [
        {
          "internalType": "string",
          "name": "ipfsUserInfoHash",
          "type": "string"
        },
        {
          "internalType": "string",
          "name": "docFileIPFSHash",
          "type": "string"
        },
        {
          "internalType": "uint256",
          "name": "depositAmount",
          "type": "uint256"
        }
      ],
      "stateMutability": "view",
      "type": "function",
      "constant": true
    },
    {
      "inputs": [
        {
          "internalType": "string",
          "name": "_did",
          "type": "string"
        }
      ],
      "name": "deposit",
      "outputs": [],
      "stateMutability": "payable",
      "type": "function",
      "payable": true
    },
    {
      "inputs": [],
      "name": "getNetworkBalance",
      "outputs": [
        {
          "internalType": "uint256",
          "name": "",
          "type": "uint256"
        }
      ],
      "stateMutability": "view",
      "type": "function",
      "constant": true
    },
    {
      "inputs": [],
      "name": "getAllRegisteredUsersDIDs",
      "outputs": [
        {
          "internalType": "string[]",
          "name": "",
          "type": "string[]"
        }
      ],
      "stateMutability": "view",
      "type": "function",
      "constant": true
    },
    {
      "inputs": [
        {
          "internalType": "uint256",
          "name": "amount",
          "type": "uint256"
        }
      ],
      "name": "withdraw",
      "outputs": [],
      "stateMutability": "nonpayable",
      "type": "function"
    }
  ],
  "bytecode": "0x6080604052662386f26fc1000060035534801561001b57600080fd5b50600280546001600160a01b03191633179055610ddf8061003d6000396000f3fe6080604052600436106100915760003560e01c80637c9b7fdd116100595780637c9b7fdd14610154578063a26e118614610174578063ae1da0b514610187578063c15c727b1461019d578063d637dcfa146101bf57600080fd5b8063048dc5d1146100965780632e1a7d4d146100cc57806338f70f4e146100ee578063689e1c0314610112578063725647ef14610141575b600080fd5b3480156100a257600080fd5b506100b66100b136600461096c565b6101d2565b6040516100c391906109d5565b60405180910390f35b3480156100d857600080fd5b506100ec6100e736600461096c565b61027e565b005b3480156100fa57600080fd5b5061010460035481565b6040519081526020016100c3565b34801561011e57600080fd5b5061013261012d366004610a92565b6103a5565b6040516100c393929190610acf565b34801561014d57600080fd5b5047610104565b34801561016057600080fd5b5061013261016f366004610a92565b6104e2565b6100ec610182366004610a92565b61065a565b34801561019357600080fd5b5061010460045481565b3480156101a957600080fd5b506101b2610733565b6040516100c39190610b05565b6100ec6101cd366004610b67565b61080c565b600181815481106101e257600080fd5b9060005260206000200160009150905080546101fd90610bef565b80601f016020809104026020016040519081016040528092919081815260200182805461022990610bef565b80156102765780601f1061024b57610100808354040283529160200191610276565b820191906000526020600020905b81548152906001019060200180831161025957829003601f168201915b505050505081565b478111156102d35760405162461bcd60e51b815260206004820152601d60248201527f496e73756666696369656e7420636f6e74726163742062616c616e636500000060448201526064015b60405180910390fd5b6004546102e1906006610c29565b431161033a5760405162461bcd60e51b815260206004820152602260248201527f506c65617365207761697420666f72206d6f726520636f6e6669726d6174696f6044820152616e7360f01b60648201526084016102ca565b43600455604051339082156108fc029083906000818181858888f1935050505015801561036b573d6000803e3d6000fd5b5060405181815233907f7fcf532c15f0a6db0bd6d0e038bea71d30d808c7d98cb3bf7268a95bf5081b65906020015b60405180910390a250565b80516020818301810180516000825292820191909301209152805481906103cb90610bef565b80601f01602080910402602001604051908101604052809291908181526020018280546103f790610bef565b80156104445780601f1061041957610100808354040283529160200191610444565b820191906000526020600020905b81548152906001019060200180831161042757829003601f168201915b50505050509080600101805461045990610bef565b80601f016020809104026020016040519081016040528092919081815260200182805461048590610bef565b80156104d25780601f106104a7576101008083540402835291602001916104d2565b820191906000526020600020905b8154815290600101906020018083116104b557829003601f168201915b5050505050908060020154905083565b6060806000806000856040516104f89190610c50565b908152602001604051809103902060405180606001604052908160008201805461052190610bef565b80601f016020809104026020016040519081016040528092919081815260200182805461054d90610bef565b801561059a5780601f1061056f5761010080835404028352916020019161059a565b820191906000526020600020905b81548152906001019060200180831161057d57829003601f168201915b505050505081526020016001820180546105b390610bef565b80601f01602080910402602001604051908101604052809291908181526020018280546105df90610bef565b801561062c5780601f106106015761010080835404028352916020019161062c565b820191906000526020600020905b81548152906001019060200180831161060f57829003601f168201915b5050509183525050600291909101546020918201528151908201516040909201519097919650945092505050565b600034116106b85760405162461bcd60e51b815260206004820152602560248201527f4465706f73697420616d6f756e74206d75737420626520677265617465722074604482015264068616e20360dc1b60648201526084016102ca565b346000826040516106c99190610c50565b908152602001604051809103902060020160008282546106e99190610c29565b90915550506040516106fc908290610c50565b604051908190038120348252907f135290006f1871309577d248cf00619459a79b4a735638108a2bb080319c90d69060200161039a565b60606001805480602002602001604051908101604052809291908181526020016000905b8282101561080357838290600052602060002001805461077690610bef565b80601f01602080910402602001604051908101604052809291908181526020018280546107a290610bef565b80156107ef5780601f106107c4576101008083540402835291602001916107ef565b820191906000526020600020905b8154815290600101906020018083116107d257829003601f168201915b505050505081526020019060010190610757565b50505050905090565b60035434101561086a5760405162461bcd60e51b815260206004820152602360248201527f4120736d616c6c2066656520697320726571756972656420746f2072656769736044820152623a32b960e91b60648201526084016102ca565b60006040518060600160405280848152602001838152602001600081525090508060008560405161089b9190610c50565b908152604051908190036020019020815181906108b89082610cbb565b50602082015160018201906108cd9082610cbb565b50604091909101516002909101556001805480820182556000919091527fb10e2d527612073b26eecdfd717e6a320cf44b4afac2b0732d9fcbe2b7fa0cf6016109168582610cbb565b50836040516109259190610c50565b60405180910390207f0a012201ed6ad03a46b4a2be566d40057141543493eb16b35966ad83539abe4f848460405161095e929190610d7b565b60405180910390a250505050565b60006020828403121561097e57600080fd5b5035919050565b60005b838110156109a0578181015183820152602001610988565b50506000910152565b600081518084526109c1816020860160208601610985565b601f01601f19169290920160200192915050565b6020815260006109e860208301846109a9565b9392505050565b634e487b7160e01b600052604160045260246000fd5b600082601f830112610a1657600080fd5b813567ffffffffffffffff80821115610a3157610a316109ef565b604051601f8301601f19908116603f01168101908282118183101715610a5957610a596109ef565b81604052838152866020858801011115610a7257600080fd5b836020870160208301376000602085830101528094505050505092915050565b600060208284031215610aa457600080fd5b813567ffffffffffffffff811115610abb57600080fd5b610ac784828501610a05565b949350505050565b606081526000610ae260608301866109a9565b8281036020840152610af481866109a9565b915050826040830152949350505050565b6000602080830181845280855180835260408601915060408160051b870101925083870160005b82811015610b5a57603f19888603018452610b488583516109a9565b94509285019290850190600101610b2c565b5092979650505050505050565b600080600060608486031215610b7c57600080fd5b833567ffffffffffffffff80821115610b9457600080fd5b610ba087838801610a05565b94506020860135915080821115610bb657600080fd5b610bc287838801610a05565b93506040860135915080821115610bd857600080fd5b50610be586828701610a05565b9150509250925092565b600181811c90821680610c0357607f821691505b602082108103610c2357634e487b7160e01b600052602260045260246000fd5b50919050565b80820180821115610c4a57634e487b7160e01b600052601160045260246000fd5b92915050565b60008251610c62818460208701610985565b9190910192915050565b601f821115610cb657600081815260208120601f850160051c81016020861015610c935750805b601f850160051c820191505b81811015610cb257828155600101610c9f565b5050505b505050565b815167ffffffffffffffff811115610cd557610cd56109ef565b610ce981610ce38454610bef565b84610c6c565b602080601f831160018114610d1e5760008415610d065750858301515b600019600386901b1c1916600185901b178555610cb2565b600085815260208120601f198616915b82811015610d4d57888601518255948401946001909101908401610d2e565b5085821015610d6b5787850151600019600388901b60f8161c191681555b5050505050600190811b01905550565b604081526000610d8e60408301856109a9565b8281036020840152610da081856109a9565b9594505050505056fea26469706673582212206b83f8a15aa856deeb5462d5e3d495fe291bb796331634d4cfeb145d6233ae4764736f6c63430008150033",
  "immutableReferences": {},
  "source": "// SPDX-License-Identifier: MIT\npragma solidity ^0.8.21;\n\ncontract UserRegistration {\n    struct UserInfo {\n        string ipfsUserInfoHash; // IPFS hash of the user information\n        string docFileIPFSHash; // IPFS hash of the document file\n        uint256 depositAmount;\n    }\n\n    mapping(string => UserInfo) public users; // Using DID as the key\n    string[] public registeredUsersDIDs;\n\n    address private admin;\n\n    uint256 public minimumRegistrationFee = 0.01 ether; // Set a default value for the minimum registration fee\n    uint256 public lastFinalizedBlock; // Declare the variable to keep track of the last finalized block\n\n    event UserRegistered(string indexed userDID, string ipfsUserInfoHash, string docFileIPFSHash);\n    event Deposit(string indexed userDID, uint256 amount);\n    event Withdrawal(address indexed withdrawer, uint256 amount);\n\n    constructor() {\n        admin = msg.sender;\n    }\n\n    function registerUser(string memory _did, string memory _ipfsUserInfoHash, string memory _docFileIPFSHash) external payable {\n        require(msg.value >= minimumRegistrationFee, \"A small fee is required to register\");\n\n        UserInfo memory newUser = UserInfo({\n            ipfsUserInfoHash: _ipfsUserInfoHash,\n            docFileIPFSHash: _docFileIPFSHash,\n            depositAmount: 0\n        });\n\n        users[_did] = newUser;\n        registeredUsersDIDs.push(_did);\n        emit UserRegistered(_did, _ipfsUserInfoHash, _docFileIPFSHash);\n    }\n\n    function getUserInfo(string memory _did) external view returns (\n        string memory ipfsUserInfoHash,\n        string memory docFileIPFSHash,\n        uint256 depositAmount\n    ) {\n        UserInfo memory user = users[_did];\n        return (\n            user.ipfsUserInfoHash,\n            user.docFileIPFSHash,\n            user.depositAmount\n        );\n    }\n\n    function deposit(string memory _did) external payable {\n        require(msg.value > 0, \"Deposit amount must be greater than 0\");\n\n        users[_did].depositAmount += msg.value;\n        emit Deposit(_did, msg.value);\n    }\n\n    function getNetworkBalance() public view returns (uint256) {\n        return address(this).balance;\n    }\n\n    function getAllRegisteredUsersDIDs() public view returns (string[] memory) {\n        return registeredUsersDIDs;\n    }\n\n    function withdraw(uint256 amount) public {\n        require(amount <= address(this).balance, \"Insufficient contract balance\");\n        require(block.number > lastFinalizedBlock + 6, \"Please wait for more confirmations\");\n\n        lastFinalizedBlock = block.number; // Update the last finalized block\n        payable(msg.sender).transfer(amount);\n        emit Withdrawal(msg.sender, amount);\n    }\n}\n",
  "sourcePath": "/media/moslem/CE90BABA90BAA7FB/MyProjects/Smart-Contract/smart-contract/contracts/UserContract.sol",
  "compiler": {
    "name": "solc",
    "version": "0.8.21+commit.d9974bed.Emscripten.clang"
  },
  "schemaVersion": "3.4.16",
  "updatedAt": "2024-08-26T14:21:02.235Z",
  "networkType": "ethereum",
  "devdoc": {
    "kind": "dev",
    "methods": {},
    "version": 1
  },
  "userdoc": {
    "kind": "user",
    "methods": {},
    "version": 1
  }
}