{
  "contractName": "UserRegistration",
  "abi": [
    {
      "inputs": [],
      "stateMutability": "nonpayable",
      "type": "constructor"
    },
    {
      "anonymous": false,
      "inputs": [
        {
          "indexed": true,
          "internalType": "string",
          "name": "userDID",
          "type": "string"
        },
        {
          "indexed": false,
          "internalType": "uint256",
          "name": "amount",
          "type": "uint256"
        }
      ],
      "name": "Deposit",
      "type": "event"
    },
    {
      "anonymous": false,
      "inputs": [
        {
          "indexed": true,
          "internalType": "string",
          "name": "userDID",
          "type": "string"
        },
        {
          "indexed": false,
          "internalType": "string",
          "name": "ipfsUserInfoHash",
          "type": "string"
        },
        {
          "indexed": false,
          "internalType": "string",
          "name": "docFileIPFSHash",
          "type": "string"
        }
      ],
      "name": "UserRegistered",
      "type": "event"
    },
    {
      "anonymous": false,
      "inputs": [
        {
          "indexed": true,
          "internalType": "address",
          "name": "admin",
          "type": "address"
        },
        {
          "indexed": false,
          "internalType": "uint256",
          "name": "amount",
          "type": "uint256"
        }
      ],
      "name": "Withdrawal",
      "type": "event"
    },
    {
      "inputs": [
        {
          "internalType": "uint256",
          "name": "",
          "type": "uint256"
        }
      ],
      "name": "registeredUsersDIDs",
      "outputs": [
        {
          "internalType": "string",
          "name": "",
          "type": "string"
        }
      ],
      "stateMutability": "view",
      "type": "function",
      "constant": true
    },
    {
      "inputs": [
        {
          "internalType": "string",
          "name": "",
          "type": "string"
        }
      ],
      "name": "users",
      "outputs": [
        {
          "internalType": "string",
          "name": "ipfsUserInfoHash",
          "type": "string"
        },
        {
          "internalType": "string",
          "name": "docFileIPFSHash",
          "type": "string"
        },
        {
          "internalType": "bool",
          "name": "isRegistered",
          "type": "bool"
        },
        {
          "internalType": "uint256",
          "name": "depositAmount",
          "type": "uint256"
        }
      ],
      "stateMutability": "view",
      "type": "function",
      "constant": true
    },
    {
      "inputs": [
        {
          "internalType": "string",
          "name": "username",
          "type": "string"
        },
        {
          "internalType": "string",
          "name": "password",
          "type": "string"
        }
      ],
      "name": "adminLogin",
      "outputs": [],
      "stateMutability": "nonpayable",
      "type": "function"
    },
    {
      "inputs": [],
      "name": "adminLogout",
      "outputs": [],
      "stateMutability": "nonpayable",
      "type": "function"
    },
    {
      "inputs": [
        {
          "internalType": "string",
          "name": "_did",
          "type": "string"
        },
        {
          "internalType": "string",
          "name": "_ipfsUserInfoHash",
          "type": "string"
        },
        {
          "internalType": "string",
          "name": "_docFileIPFSHash",
          "type": "string"
        }
      ],
      "name": "registerUser",
      "outputs": [],
      "stateMutability": "nonpayable",
      "type": "function"
    },
    {
      "inputs": [
        {
          "internalType": "string",
          "name": "_did",
          "type": "string"
        }
      ],
      "name": "getUserInfo",
      "outputs": [
        {
          "internalType": "string",
          "name": "ipfsUserInfoHash",
          "type": "string"
        },
        {
          "internalType": "string",
          "name": "docFileIPFSHash",
          "type": "string"
        },
        {
          "internalType": "bool",
          "name": "isRegistered",
          "type": "bool"
        },
        {
          "internalType": "uint256",
          "name": "depositAmount",
          "type": "uint256"
        }
      ],
      "stateMutability": "view",
      "type": "function",
      "constant": true
    },
    {
      "inputs": [
        {
          "internalType": "string",
          "name": "_did",
          "type": "string"
        },
        {
          "internalType": "uint256",
          "name": "amount",
          "type": "uint256"
        }
      ],
      "name": "deposit",
      "outputs": [],
      "stateMutability": "payable",
      "type": "function",
      "payable": true
    },
    {
      "inputs": [],
      "name": "getNetworkBalance",
      "outputs": [
        {
          "internalType": "uint256",
          "name": "",
          "type": "uint256"
        }
      ],
      "stateMutability": "view",
      "type": "function",
      "constant": true
    },
    {
      "inputs": [],
      "name": "getAllRegisteredUsersDIDs",
      "outputs": [
        {
          "internalType": "string[]",
          "name": "",
          "type": "string[]"
        }
      ],
      "stateMutability": "view",
      "type": "function",
      "constant": true
    },
    {
      "inputs": [
        {
          "internalType": "uint256",
          "name": "amount",
          "type": "uint256"
        }
      ],
      "name": "withdraw",
      "outputs": [],
      "stateMutability": "nonpayable",
      "type": "function"
    }
  ],
  "bytecode": "0x608060405234801561001057600080fd5b50600280546001600160a01b03191633179055611327806100326000396000f3fe6080604052600436106100915760003560e01c80638e27d719116100595780638e27d71914610161578063a1c8552614610174578063c15c727b14610189578063c7154080146101ab578063d637dcfa146101cb57600080fd5b8063048dc5d1146100965780632e1a7d4d146100cc578063689e1c03146100ee578063725647ef1461011e5780637c9b7fdd14610141575b600080fd5b3480156100a257600080fd5b506100b66100b1366004610d78565b6101eb565b6040516100c39190610de1565b60405180910390f35b3480156100d857600080fd5b506100ec6100e7366004610d78565b610297565b005b3480156100fa57600080fd5b5061010e610109366004610e9e565b6103c3565b6040516100c39493929190610edb565b34801561012a57600080fd5b5061013361050a565b6040519081526020016100c3565b34801561014d57600080fd5b5061010e61015c366004610e9e565b610565565b6100ec61016f366004610f14565b61073f565b34801561018057600080fd5b506100ec6108ea565b34801561019557600080fd5b5061019e61094c565b6040516100c39190610f59565b3480156101b757600080fd5b506100ec6101c6366004610fbb565b610a79565b3480156101d757600080fd5b506100ec6101e636600461101f565b610be9565b600181815481106101fb57600080fd5b906000526020600020016000915090508054610216906110a7565b80601f0160208091040260200160405190810160405280929190818152602001828054610242906110a7565b801561028f5780601f106102645761010080835404028352916020019161028f565b820191906000526020600020905b81548152906001019060200180831161027257829003601f168201915b505050505081565b6002546001600160a01b031633146102ca5760405162461bcd60e51b81526004016102c1906110e1565b60405180910390fd5b600254600160a01b900460ff166102f35760405162461bcd60e51b81526004016102c190611123565b478111156103435760405162461bcd60e51b815260206004820152601d60248201527f496e73756666696369656e7420636f6e74726163742062616c616e636500000060448201526064016102c1565b6002546040516001600160a01b039091169082156108fc029083906000818181858888f1935050505015801561037d573d6000803e3d6000fd5b506002546040518281526001600160a01b03909116907f7fcf532c15f0a6db0bd6d0e038bea71d30d808c7d98cb3bf7268a95bf5081b659060200160405180910390a250565b80516020818301810180516000825292820191909301209152805481906103e9906110a7565b80601f0160208091040260200160405190810160405280929190818152602001828054610415906110a7565b80156104625780601f1061043757610100808354040283529160200191610462565b820191906000526020600020905b81548152906001019060200180831161044557829003601f168201915b505050505090806001018054610477906110a7565b80601f01602080910402602001604051908101604052809291908181526020018280546104a3906110a7565b80156104f05780601f106104c5576101008083540402835291602001916104f0565b820191906000526020600020905b8154815290600101906020018083116104d357829003601f168201915b505050506002830154600390930154919260ff1691905084565b6002546000906001600160a01b031633146105375760405162461bcd60e51b81526004016102c1906110e1565b600254600160a01b900460ff166105605760405162461bcd60e51b81526004016102c190611123565b504790565b6060806000806000808660405161057c9190611171565b90815260200160405180910390206040518060800160405290816000820180546105a5906110a7565b80601f01602080910402602001604051908101604052809291908181526020018280546105d1906110a7565b801561061e5780601f106105f35761010080835404028352916020019161061e565b820191906000526020600020905b81548152906001019060200180831161060157829003601f168201915b50505050508152602001600182018054610637906110a7565b80601f0160208091040260200160405190810160405280929190818152602001828054610663906110a7565b80156106b05780601f10610685576101008083540402835291602001916106b0565b820191906000526020600020905b81548152906001019060200180831161069357829003601f168201915b5050509183525050600282015460ff161515602082015260039091015460409182015281015190915061071e5760405162461bcd60e51b8152602060048201526016602482015275155cd95c881a5cc81b9bdd081c9959da5cdd195c995960521b60448201526064016102c1565b80516020820151604083015160609093015191989097509195509350915050565b60008260405161074f9190611171565b9081526040519081900360200190206002015460ff166107aa5760405162461bcd60e51b8152602060048201526016602482015275155cd95c881a5cc81b9bdd081c9959da5cdd195c995960521b60448201526064016102c1565b600081116108085760405162461bcd60e51b815260206004820152602560248201527f4465706f73697420616d6f756e74206d75737420626520677265617465722074604482015264068616e20360dc1b60648201526084016102c1565b8034146108685760405162461bcd60e51b815260206004820152602860248201527f53656e742076616c7565206d757374206d6174636820746865206465706f73696044820152671d08185b5bdd5b9d60c21b60648201526084016102c1565b346000836040516108799190611171565b90815260200160405180910390206003016000828254610899919061118d565b90915550506040516108ac908390611171565b604051908190038120348252907f135290006f1871309577d248cf00619459a79b4a735638108a2bb080319c90d69060200160405180910390a25050565b6002546001600160a01b031633146109145760405162461bcd60e51b81526004016102c1906110e1565b600254600160a01b900460ff1661093d5760405162461bcd60e51b81526004016102c190611123565b6002805460ff60a01b19169055565b6002546060906001600160a01b031633146109795760405162461bcd60e51b81526004016102c1906110e1565b600254600160a01b900460ff166109a25760405162461bcd60e51b81526004016102c190611123565b6001805480602002602001604051908101604052809291908181526020016000905b82821015610a705783829060005260206000200180546109e3906110a7565b80601f0160208091040260200160405190810160405280929190818152602001828054610a0f906110a7565b8015610a5c5780601f10610a3157610100808354040283529160200191610a5c565b820191906000526020600020905b815481529060010190602001808311610a3f57829003601f168201915b5050505050815260200190600101906109c4565b50505050905090565b6040518060400160405280600581526020016430b236b4b760d91b815250604051602001610aa79190611171565b6040516020818303038152906040528051906020012082604051602001610ace9190611171565b6040516020818303038152906040528051906020012014610b245760405162461bcd60e51b815260206004820152601060248201526f496e76616c696420757365726e616d6560801b60448201526064016102c1565b604051806040016040528060088152602001671c185cdcdddbdc9960c21b815250604051602001610b559190611171565b6040516020818303038152906040528051906020012081604051602001610b7c9190611171565b6040516020818303038152906040528051906020012014610bd25760405162461bcd60e51b815260206004820152601060248201526f125b9d985b1a59081c185cdcdddbdc9960821b60448201526064016102c1565b50506002805460ff60a01b1916600160a01b179055565b600083604051610bf99190611171565b9081526040519081900360200190206002015460ff1615610c5c5760405162461bcd60e51b815260206004820152601760248201527f5573657220616c7265616479207265676973746572656400000000000000000060448201526064016102c1565b6040805160808101825283815260208101839052600181830152600060608201819052915190918291610c90908790611171565b90815260405190819003602001902081518190610cad9082611203565b5060208201516001820190610cc29082611203565b50604082015160028201805460ff19169115159190911790556060909101516003909101556001805480820182556000919091527fb10e2d527612073b26eecdfd717e6a320cf44b4afac2b0732d9fcbe2b7fa0cf601610d228582611203565b5083604051610d319190611171565b60405180910390207f0a012201ed6ad03a46b4a2be566d40057141543493eb16b35966ad83539abe4f8484604051610d6a9291906112c3565b60405180910390a250505050565b600060208284031215610d8a57600080fd5b5035919050565b60005b83811015610dac578181015183820152602001610d94565b50506000910152565b60008151808452610dcd816020860160208601610d91565b601f01601f19169290920160200192915050565b602081526000610df46020830184610db5565b9392505050565b634e487b7160e01b600052604160045260246000fd5b600082601f830112610e2257600080fd5b813567ffffffffffffffff80821115610e3d57610e3d610dfb565b604051601f8301601f19908116603f01168101908282118183101715610e6557610e65610dfb565b81604052838152866020858801011115610e7e57600080fd5b836020870160208301376000602085830101528094505050505092915050565b600060208284031215610eb057600080fd5b813567ffffffffffffffff811115610ec757600080fd5b610ed384828501610e11565b949350505050565b608081526000610eee6080830187610db5565b8281036020840152610f008187610db5565b941515604084015250506060015292915050565b60008060408385031215610f2757600080fd5b823567ffffffffffffffff811115610f3e57600080fd5b610f4a85828601610e11565b95602094909401359450505050565b6000602080830181845280855180835260408601915060408160051b870101925083870160005b82811015610fae57603f19888603018452610f9c858351610db5565b94509285019290850190600101610f80565b5092979650505050505050565b60008060408385031215610fce57600080fd5b823567ffffffffffffffff80821115610fe657600080fd5b610ff286838701610e11565b9350602085013591508082111561100857600080fd5b5061101585828601610e11565b9150509250929050565b60008060006060848603121561103457600080fd5b833567ffffffffffffffff8082111561104c57600080fd5b61105887838801610e11565b9450602086013591508082111561106e57600080fd5b61107a87838801610e11565b9350604086013591508082111561109057600080fd5b5061109d86828701610e11565b9150509250925092565b600181811c908216806110bb57607f821691505b6020821081036110db57634e487b7160e01b600052602260045260246000fd5b50919050565b60208082526022908201527f4f6e6c792061646d696e2063616e20706572666f726d2074686973206163746960408201526137b760f11b606082015260800190565b6020808252602e908201527f41646d696e206d757374206265206c6f6767656420696e20746f20706572666f60408201526d3936903a3434b99030b1ba34b7b760911b606082015260800190565b60008251611183818460208701610d91565b9190910192915050565b808201808211156111ae57634e487b7160e01b600052601160045260246000fd5b92915050565b601f8211156111fe57600081815260208120601f850160051c810160208610156111db5750805b601f850160051c820191505b818110156111fa578281556001016111e7565b5050505b505050565b815167ffffffffffffffff81111561121d5761121d610dfb565b6112318161122b84546110a7565b846111b4565b602080601f831160018114611266576000841561124e5750858301515b600019600386901b1c1916600185901b1785556111fa565b600085815260208120601f198616915b8281101561129557888601518255948401946001909101908401611276565b50858210156112b35787850151600019600388901b60f8161c191681555b5050505050600190811b01905550565b6040815260006112d66040830185610db5565b82810360208401526112e88185610db5565b9594505050505056fea2646970667358221220ec668d54e2aaf3af118cea9c1914d17eeea0862077fd3e285cc47730e4a91b3a64736f6c63430008150033",
  "immutableReferences": {},
  "source": "// SPDX-License-Identifier: MIT\npragma solidity ^0.8.0;\n\ncontract UserRegistration {\n    struct UserInfo {\n        string ipfsUserInfoHash; // IPFS hash of the user information\n        string docFileIPFSHash; // IPFS hash of the document file\n        bool isRegistered;\n        uint256 depositAmount;\n    }\n\n    mapping(string => UserInfo) public users; // Using DID as the key\n    string[] public registeredUsersDIDs;\n\n    address private admin;\n    bool private isAdminLoggedIn;\n    string private constant adminUsername = \"admin\";\n    string private constant adminPassword = \"password\"; // Hardcoded password for simplicity, not secure\n\n    event UserRegistered(string indexed userDID, string ipfsUserInfoHash, string docFileIPFSHash);\n    event Deposit(string indexed userDID, uint256 amount);\n    event Withdrawal(address indexed admin, uint256 amount);\n\n    constructor() {\n        admin = msg.sender;\n    }\n\n    modifier onlyAdmin() {\n        require(msg.sender == admin, \"Only admin can perform this action\");\n        require(isAdminLoggedIn, \"Admin must be logged in to perform this action\");\n        _;\n    }\n\n    function adminLogin(string memory username, string memory password) public {\n        require(keccak256(abi.encodePacked(username)) == keccak256(abi.encodePacked(adminUsername)), \"Invalid username\");\n        require(keccak256(abi.encodePacked(password)) == keccak256(abi.encodePacked(adminPassword)), \"Invalid password\");\n        isAdminLoggedIn = true;\n    }\n\n    function adminLogout() public onlyAdmin {\n        isAdminLoggedIn = false;\n    }\n\n    function registerUser(string memory _did, string memory _ipfsUserInfoHash, string memory _docFileIPFSHash) external {\n        require(!users[_did].isRegistered, \"User already registered\");\n\n        UserInfo memory newUser = UserInfo({\n            ipfsUserInfoHash: _ipfsUserInfoHash,\n            docFileIPFSHash: _docFileIPFSHash,\n            isRegistered: true,\n            depositAmount: 0\n        });\n\n        users[_did] = newUser;\n        registeredUsersDIDs.push(_did);\n        emit UserRegistered(_did, _ipfsUserInfoHash, _docFileIPFSHash);\n    }\n\n    function getUserInfo(string memory _did) external view returns (\n        string memory ipfsUserInfoHash,\n        string memory docFileIPFSHash,\n        bool isRegistered,\n        uint256 depositAmount\n    ) {\n        UserInfo memory user = users[_did];\n        require(user.isRegistered, \"User is not registered\");\n\n        return (\n            user.ipfsUserInfoHash,\n            user.docFileIPFSHash,\n            user.isRegistered,\n            user.depositAmount\n        );\n    }\n\n    function deposit(string memory _did, uint256 amount) external payable {\n        require(users[_did].isRegistered, \"User is not registered\");\n        require(amount > 0, \"Deposit amount must be greater than 0\");\n        require(msg.value == amount, \"Sent value must match the deposit amount\");\n\n        users[_did].depositAmount += msg.value;\n        emit Deposit(_did, msg.value);\n    }\n\n    function getNetworkBalance() public view onlyAdmin returns (uint256) {\n        return address(this).balance;\n    }\n\n    function getAllRegisteredUsersDIDs() public view onlyAdmin returns (string[] memory) {\n        return registeredUsersDIDs;\n    }\n\n    function withdraw(uint256 amount) public onlyAdmin {\n        require(amount <= address(this).balance, \"Insufficient contract balance\");\n        payable(admin).transfer(amount);\n        emit Withdrawal(admin, amount);\n    }\n}\n\n\n",
  "sourcePath": "/media/moslem/CE90BABA90BAA7FB/MyProjects/Smart-Contract/smart-contract/contracts/UserContract.sol",
  "compiler": {
    "name": "solc",
    "version": "0.8.21+commit.d9974bed.Emscripten.clang"
  },
  "schemaVersion": "3.4.16",
  "updatedAt": "2024-08-24T13:50:43.884Z",
  "networkType": "ethereum",
  "devdoc": {
    "kind": "dev",
    "methods": {},
    "version": 1
  },
  "userdoc": {
    "kind": "user",
    "methods": {},
    "version": 1
  }
}